S01700004763634170706C69636174696F6E352E7372656357
S11300000C942A000C9447000C9447000C9447006D
S11300100C9447000C9447000C9447000C94470040
S11300200C9447000C9447000C9447000C94470030
S11300300C9447000C9447000C9447000C94470020
S11300400C9447000C9447000C9447000C94470010
S11300500C94470011241FBECFE5D8E0DEBFCDBF0E
S113006010E0A0E6B0E0E2E6F7E002C005900D92F1
S1130070A83CB107D9F720E0A8ECB0E001C01D927C
S1130080A43DB207E1F70E94F7010C94AF030C946E
S1130090000087B1806487B987B18F7787B984B14D
S11300A095B18E7F95B984B984B195B18D7F95B999
S11300B084B984B195B18B7F95B984B984B195B174
S11300C0877F95B984B984B195B18F7E95B984B988
S11300D086B1816086B986B1826086B986B1846052
S11300E086B9089586B1806486B9349BFECF86B103
S11300F0806186B984B195B1089517B897B1892BF9
S113010087B9089586B1806886B90895843008F067
S113011072C0683008F06FC04130A1F5813089F0B9
S113012028F08230C9F0833011F108952BB381E0B7
S113013090E002C0880F991F6A95E2F7822B8BBB6F
S1130140089528B381E090E002C0880F991F6A9552
S1130150E2F7822B88BB089525B381E090E002C0CA
S1130160880F991F6A95E2F7822B85BB089522B305
S113017081E090E002C0880F991F6A95E2F7822B14
S113018082BB0895411137C0813091F028F082304C
S1130190D9F0833029F108952BB381E090E002C0B7
S11301A0880F991F6A95E2F7809582238BBB089587
S11301B028B381E090E002C0880F991F6A95E2F7A6
S11301C08095822388BB089525B381E090E002C026
S11301D0880F991F6A95E2F78095822385BB08955D
S11301E022B381E090E002C0880F991F6A95E2F77C
S11301F08095822382BB08958430B8F56130A1F4E0
S1130200813049F028F0823049F0833051F008956C
S11302108FEF8ABB08958FEF87BB08958FEF84BB60
S113022008958FEF81BB0895611110C0813041F0B2
S113023028F0823039F0833039F008951ABA0895DD
S113024017BA089514BA089511BA0895813041F087
S113025028F0823039F0833039F008956ABB08956C
S113026067BB089564BB089561BB08958430B8F5F5
S11302706130A1F4813049F028F0823049F08330B4
S113028051F008958FEF8BBB08958FEF88BB0895CD
S11302908FEF85BB08958FEF82BB0895611110C065
S11302A0813041F028F0823039F0833039F00895FC
S11302B01BBA089518BA089515BA089512BA089584
S11302C0813041F028F0823039F0833039F00895DC
S11302D06BBB089568BB089565BB089562BB089520
S11302E0CF93C82F41E060E082E00E94860040E0A6
S11302F061E082E00E94860041E062E082E00E94C8
S113030086008FE19EE40197F1F700C000006C2F96
S113031083E00E94360140E062E082E00E948600B1
S11303208FE19EE40197F1F700C00000CF9108959A
S1130330CF93C82F40E060E082E00E94860040E056
S113034061E082E00E94860041E062E082E00E9477
S113035086008FE19EE40197F1F700C000006C2F46
S113036083E00E94360140E062E082E00E94860061
S11303708FE19EE40197F1F700C00000CF9108954A
S11303802FE785EB91E0215080409040E1F700C0D9
S1130390000088E30E9498018FE99FE00197F1F73C
S11303A000C000008CE00E9498018FE99FE0019753
S11303B0F1F700C0000081E00E9498018FE39FE103
S11303C00197F1F700C0000086E00E9498010895AB
S11303D0CF93DF93EC01892B21F406C00E947001B6
S11303E0219688818111FACFDF91CF9108950E94DF
S11303F049000E94820081E00E94720061E083E073
S11304000E94FC0061E082E00E94FC0060E080E069
S11304100E94FC000E94C0010E940F02FDCFCF93F6
S1130420DF93C0E0D0E022C0CE010E947D008C2F7B
S11304300E9472009093C9008093C80028E833E1B9
S1130440DC010E949903DC01CB01072E7AE0B6950A
S1130450A795979587957A95D1F7702DFE01EE0FA4
S1130460FF1FE653FF4F918380832196C530D1054A
S1130470DCF28091CA009091CB00853C994044F114
S11304808091CC009091CD00803B94400CF58091FC
S1130490CE009091CF00853C9940D4F08091D0005B
S11304A09091D100853C99409CF08091D20090912C
S11304B0D300803B944064F480E890E00E9498016B
S11304C080E690E00E94E80181E090E00E949801BB
S11304D08091CA009091CB00803B944044F5809178
S11304E0CC009091CD00803B94400CF58091CE00DF
S11304F09091CF00853C9940D4F08091D0009091A8
S1130500D100853C99409CF08091D2009091D30019
S1130510803B944064F485E890E00E9498018FE663
S113052090E00E94E80181E090E00E9498018091AF
S1130530CA009091CB00803B944084F58091CC001C
S11305409091CD00803B94404CF58091CE009091E9
S1130550CF00803B944014F58091D0009091D1005D
S1130560853C9940DCF08091D2009091D300803B8F
S11305709440A4F480E890E00E9498018BE790E016
S11305800E94E80185EC90E00E94980185E990E0E2
S11305900E94E80181E090E00E9498018091CA00E5
S11305A09091CB00853C994064F18091CC0090916E
S11305B0CD00815B94408331954018F58091CE0045
S11305C09091CF00815B944083319540D0F4809129
S11305D0D0009091D100853C99409CF08091D2004C
S11305E09091D300853C994064F080E890E00E94AB
S11305F0980189E890E00E94E80181E090E00E947F
S113060098018091CA009091CB00853C994044F1B7
S11306108091CC009091CD00803B94400CF580916A
S1130620CE009091CF00853C9940D4F08091D000C9
S11306309091D100853C99409CF08091D20090919A
S1130640D300853C994064F085E890E00E949801CD
S11306508CE990E00E94E80181E090E00E9498011A
S11306608091CA009091CB00803B944044F58091E6
S1130670CC009091CD00853C99400CF18091CE0046
S11306809091CF00853C9940D4F08091D000909116
S1130690D100853C99409CF08091D2009091D30088
S11306A0853C994064F085E890E00E94980185EAD1
S11306B090E00E94E80181E090E00E94980180911E
S11306C0CA009091CB00803B944084F58091CC008B
S11306D09091CD00803B94404CF58091CE00909158
S11306E0CF00803B944014F58091D0009091D100CC
S11306F0803B9440DCF48091D2009091D300803B05
S11307009440A4F480E890E00E9498018FEA90E07D
S11307100E94E80180EC90E00E9498018AEB90E04E
S11307200E94E80181E090E00E949801DF91CF915E
S113073008950E94A003B7FF0895821B930B0895A8
S1130740A29FB001B39FC001A39F700D811D11240E
S1130750911DB29F700D811D1124911D0895F8946F
S1050760FFCFC5
S1130762526F636B20416E6420526F6C6C2100499E
S1130772204C4F564520594F55210049205245419E
S11307824C4C59204C4F56450049274D2057415453
S11307924348494E4720594F552021004845592086
S11307A2594F552100474F4F44204A4F4221004997
S11307B2205749534820594F550041204841505031
S10B07C259204C494645000092
S9030000FC
